{
  "address": "0x5fe18E7774614DeAE28A62F5676bc8DE6626D294",
  "abi": [
    {
      "inputs": [],
      "stateMutability": "nonpayable",
      "type": "constructor"
    },
    {
      "inputs": [],
      "name": "ERC721EnumerableForbiddenBatchMint",
      "type": "error"
    },
    {
      "inputs": [
        {
          "internalType": "address",
          "name": "sender",
          "type": "address"
        },
        {
          "internalType": "uint256",
          "name": "tokenId",
          "type": "uint256"
        },
        {
          "internalType": "address",
          "name": "owner",
          "type": "address"
        }
      ],
      "name": "ERC721IncorrectOwner",
      "type": "error"
    },
    {
      "inputs": [
        {
          "internalType": "address",
          "name": "operator",
          "type": "address"
        },
        {
          "internalType": "uint256",
          "name": "tokenId",
          "type": "uint256"
        }
      ],
      "name": "ERC721InsufficientApproval",
      "type": "error"
    },
    {
      "inputs": [
        {
          "internalType": "address",
          "name": "approver",
          "type": "address"
        }
      ],
      "name": "ERC721InvalidApprover",
      "type": "error"
    },
    {
      "inputs": [
        {
          "internalType": "address",
          "name": "operator",
          "type": "address"
        }
      ],
      "name": "ERC721InvalidOperator",
      "type": "error"
    },
    {
      "inputs": [
        {
          "internalType": "address",
          "name": "owner",
          "type": "address"
        }
      ],
      "name": "ERC721InvalidOwner",
      "type": "error"
    },
    {
      "inputs": [
        {
          "internalType": "address",
          "name": "receiver",
          "type": "address"
        }
      ],
      "name": "ERC721InvalidReceiver",
      "type": "error"
    },
    {
      "inputs": [
        {
          "internalType": "address",
          "name": "sender",
          "type": "address"
        }
      ],
      "name": "ERC721InvalidSender",
      "type": "error"
    },
    {
      "inputs": [
        {
          "internalType": "uint256",
          "name": "tokenId",
          "type": "uint256"
        }
      ],
      "name": "ERC721NonexistentToken",
      "type": "error"
    },
    {
      "inputs": [
        {
          "internalType": "address",
          "name": "owner",
          "type": "address"
        },
        {
          "internalType": "uint256",
          "name": "index",
          "type": "uint256"
        }
      ],
      "name": "ERC721OutOfBoundsIndex",
      "type": "error"
    },
    {
      "anonymous": false,
      "inputs": [
        {
          "indexed": true,
          "internalType": "address",
          "name": "owner",
          "type": "address"
        },
        {
          "indexed": true,
          "internalType": "address",
          "name": "approved",
          "type": "address"
        },
        {
          "indexed": true,
          "internalType": "uint256",
          "name": "tokenId",
          "type": "uint256"
        }
      ],
      "name": "Approval",
      "type": "event"
    },
    {
      "anonymous": false,
      "inputs": [
        {
          "indexed": true,
          "internalType": "address",
          "name": "owner",
          "type": "address"
        },
        {
          "indexed": true,
          "internalType": "address",
          "name": "operator",
          "type": "address"
        },
        {
          "indexed": false,
          "internalType": "bool",
          "name": "approved",
          "type": "bool"
        }
      ],
      "name": "ApprovalForAll",
      "type": "event"
    },
    {
      "anonymous": false,
      "inputs": [
        {
          "indexed": true,
          "internalType": "address",
          "name": "from",
          "type": "address"
        },
        {
          "indexed": true,
          "internalType": "address",
          "name": "to",
          "type": "address"
        },
        {
          "indexed": true,
          "internalType": "uint256",
          "name": "tokenId",
          "type": "uint256"
        }
      ],
      "name": "Transfer",
      "type": "event"
    },
    {
      "inputs": [
        {
          "internalType": "address",
          "name": "to",
          "type": "address"
        },
        {
          "internalType": "uint256",
          "name": "tokenId",
          "type": "uint256"
        }
      ],
      "name": "approve",
      "outputs": [],
      "stateMutability": "nonpayable",
      "type": "function"
    },
    {
      "inputs": [
        {
          "internalType": "address",
          "name": "owner",
          "type": "address"
        }
      ],
      "name": "balanceOf",
      "outputs": [
        {
          "internalType": "uint256",
          "name": "",
          "type": "uint256"
        }
      ],
      "stateMutability": "view",
      "type": "function"
    },
    {
      "inputs": [
        {
          "internalType": "uint256",
          "name": "",
          "type": "uint256"
        }
      ],
      "name": "chubbiness",
      "outputs": [
        {
          "internalType": "uint256",
          "name": "",
          "type": "uint256"
        }
      ],
      "stateMutability": "view",
      "type": "function"
    },
    {
      "inputs": [
        {
          "internalType": "uint256",
          "name": "",
          "type": "uint256"
        }
      ],
      "name": "color",
      "outputs": [
        {
          "internalType": "bytes3",
          "name": "",
          "type": "bytes3"
        }
      ],
      "stateMutability": "view",
      "type": "function"
    },
    {
      "inputs": [],
      "name": "curve",
      "outputs": [
        {
          "internalType": "uint256",
          "name": "",
          "type": "uint256"
        }
      ],
      "stateMutability": "view",
      "type": "function"
    },
    {
      "inputs": [
        {
          "internalType": "uint256",
          "name": "tokenId",
          "type": "uint256"
        }
      ],
      "name": "getApproved",
      "outputs": [
        {
          "internalType": "address",
          "name": "",
          "type": "address"
        }
      ],
      "stateMutability": "view",
      "type": "function"
    },
    {
      "inputs": [
        {
          "internalType": "address",
          "name": "owner",
          "type": "address"
        },
        {
          "internalType": "address",
          "name": "operator",
          "type": "address"
        }
      ],
      "name": "isApprovedForAll",
      "outputs": [
        {
          "internalType": "bool",
          "name": "",
          "type": "bool"
        }
      ],
      "stateMutability": "view",
      "type": "function"
    },
    {
      "inputs": [],
      "name": "limit",
      "outputs": [
        {
          "internalType": "uint256",
          "name": "",
          "type": "uint256"
        }
      ],
      "stateMutability": "view",
      "type": "function"
    },
    {
      "inputs": [],
      "name": "mintItem",
      "outputs": [
        {
          "internalType": "uint256",
          "name": "",
          "type": "uint256"
        }
      ],
      "stateMutability": "payable",
      "type": "function"
    },
    {
      "inputs": [
        {
          "internalType": "uint256",
          "name": "",
          "type": "uint256"
        }
      ],
      "name": "mouthLength",
      "outputs": [
        {
          "internalType": "uint256",
          "name": "",
          "type": "uint256"
        }
      ],
      "stateMutability": "view",
      "type": "function"
    },
    {
      "inputs": [],
      "name": "name",
      "outputs": [
        {
          "internalType": "string",
          "name": "",
          "type": "string"
        }
      ],
      "stateMutability": "view",
      "type": "function"
    },
    {
      "inputs": [
        {
          "internalType": "uint256",
          "name": "tokenId",
          "type": "uint256"
        }
      ],
      "name": "ownerOf",
      "outputs": [
        {
          "internalType": "address",
          "name": "",
          "type": "address"
        }
      ],
      "stateMutability": "view",
      "type": "function"
    },
    {
      "inputs": [],
      "name": "price",
      "outputs": [
        {
          "internalType": "uint256",
          "name": "",
          "type": "uint256"
        }
      ],
      "stateMutability": "view",
      "type": "function"
    },
    {
      "inputs": [],
      "name": "recipient",
      "outputs": [
        {
          "internalType": "address payable",
          "name": "",
          "type": "address"
        }
      ],
      "stateMutability": "view",
      "type": "function"
    },
    {
      "inputs": [
        {
          "internalType": "uint256",
          "name": "id",
          "type": "uint256"
        }
      ],
      "name": "renderTokenById",
      "outputs": [
        {
          "internalType": "string",
          "name": "",
          "type": "string"
        }
      ],
      "stateMutability": "view",
      "type": "function"
    },
    {
      "inputs": [
        {
          "internalType": "address",
          "name": "from",
          "type": "address"
        },
        {
          "internalType": "address",
          "name": "to",
          "type": "address"
        },
        {
          "internalType": "uint256",
          "name": "tokenId",
          "type": "uint256"
        }
      ],
      "name": "safeTransferFrom",
      "outputs": [],
      "stateMutability": "nonpayable",
      "type": "function"
    },
    {
      "inputs": [
        {
          "internalType": "address",
          "name": "from",
          "type": "address"
        },
        {
          "internalType": "address",
          "name": "to",
          "type": "address"
        },
        {
          "internalType": "uint256",
          "name": "tokenId",
          "type": "uint256"
        },
        {
          "internalType": "bytes",
          "name": "data",
          "type": "bytes"
        }
      ],
      "name": "safeTransferFrom",
      "outputs": [],
      "stateMutability": "nonpayable",
      "type": "function"
    },
    {
      "inputs": [
        {
          "internalType": "address",
          "name": "operator",
          "type": "address"
        },
        {
          "internalType": "bool",
          "name": "approved",
          "type": "bool"
        }
      ],
      "name": "setApprovalForAll",
      "outputs": [],
      "stateMutability": "nonpayable",
      "type": "function"
    },
    {
      "inputs": [
        {
          "internalType": "bytes4",
          "name": "interfaceId",
          "type": "bytes4"
        }
      ],
      "name": "supportsInterface",
      "outputs": [
        {
          "internalType": "bool",
          "name": "",
          "type": "bool"
        }
      ],
      "stateMutability": "view",
      "type": "function"
    },
    {
      "inputs": [],
      "name": "symbol",
      "outputs": [
        {
          "internalType": "string",
          "name": "",
          "type": "string"
        }
      ],
      "stateMutability": "view",
      "type": "function"
    },
    {
      "inputs": [
        {
          "internalType": "uint256",
          "name": "index",
          "type": "uint256"
        }
      ],
      "name": "tokenByIndex",
      "outputs": [
        {
          "internalType": "uint256",
          "name": "",
          "type": "uint256"
        }
      ],
      "stateMutability": "view",
      "type": "function"
    },
    {
      "inputs": [
        {
          "internalType": "address",
          "name": "owner",
          "type": "address"
        },
        {
          "internalType": "uint256",
          "name": "index",
          "type": "uint256"
        }
      ],
      "name": "tokenOfOwnerByIndex",
      "outputs": [
        {
          "internalType": "uint256",
          "name": "",
          "type": "uint256"
        }
      ],
      "stateMutability": "view",
      "type": "function"
    },
    {
      "inputs": [
        {
          "internalType": "uint256",
          "name": "id",
          "type": "uint256"
        }
      ],
      "name": "tokenURI",
      "outputs": [
        {
          "internalType": "string",
          "name": "",
          "type": "string"
        }
      ],
      "stateMutability": "view",
      "type": "function"
    },
    {
      "inputs": [],
      "name": "totalSupply",
      "outputs": [
        {
          "internalType": "uint256",
          "name": "",
          "type": "uint256"
        }
      ],
      "stateMutability": "view",
      "type": "function"
    },
    {
      "inputs": [
        {
          "internalType": "address",
          "name": "from",
          "type": "address"
        },
        {
          "internalType": "address",
          "name": "to",
          "type": "address"
        },
        {
          "internalType": "uint256",
          "name": "tokenId",
          "type": "uint256"
        }
      ],
      "name": "transferFrom",
      "outputs": [],
      "stateMutability": "nonpayable",
      "type": "function"
    }
  ],
  "transactionHash": "0xf020743d0c12dd4896406e083c5688cab9b084a9038ce5156ec109794e1362f9",
  "args": [],
  "numDeployments": 1,
  "solcInputHash": "d808060656e531d97e01b4d82a7fbcf4",
  "bytecode": "0x60803462000322576001600160401b0390604090808201838111828210176200030c57825260118152602092704f7074696d69737469634c6f6f6769657360781b848301528251838101818110838211176200030c57845260068152654f504c4f4f4760d01b858201528251908282116200030c5760008054926001958685811c9516801562000301575b89861014620002ed578190601f958681116200029a575b508990868311600114620002365784926200022a575b5050600019600383901b1c191690861b1781555b8151938411620002165784548581811c911680156200020b575b88821014620001f757838111620001af575b508692841160011462000149578394959650926200013d575b5050600019600383901b1c191690821b1790555b66038d7ea4c68000600b55516123f49081620003288239f35b01519050388062000110565b9190601f1984169685845280842093905b8882106200019757505083859697106200017d575b505050811b01905562000124565b015160001960f88460031b161c191690553880806200016f565b8087859682949686015181550195019301906200015a565b8582528782208480870160051c8201928a8810620001ed575b0160051c019086905b828110620001e1575050620000f7565b838155018690620001d1565b92508192620001c8565b634e487b7160e01b82526022600452602482fd5b90607f1690620000e5565b634e487b7160e01b81526041600452602490fd5b015190503880620000b7565b8480528a85208994509190601f198416865b8d82821062000283575050841162000269575b505050811b018155620000cb565b015160001960f88460031b161c191690553880806200025b565b8385015186558c9790950194938401930162000248565b9091508380528984208680850160051c8201928c8610620002e3575b918a91869594930160051c01915b828110620002d4575050620000a1565b8681558594508a9101620002c4565b92508192620002b6565b634e487b7160e01b83526022600452602483fd5b94607f16946200008a565b634e487b7160e01b600052604160045260246000fd5b600080fdfe6080604052600436101561001257600080fd5b60003560e01c806301ffc9a7146101a757806306fdde03146101a2578063081812fc1461019d578063095ea7b31461019857806318160ddd1461019357806323b872dd1461018e5780632f745c59146101895780633f4f85611461018457806342842e0e1461017f5780634f6ccce71461017a5780636352211e1461017557806366d003ac1461017057806370a082311461016b5780637165485d1461016657806395d89b4114610161578063a035b1fe1461015c578063a22cb46514610157578063a2d6c6da14610152578063a4d66daf1461014d578063b88d4fde14610148578063c87b56dd14610143578063d4e28c9c1461013e578063e985e9c514610139578063eb93406b146101345763faa204e11461012f57600080fd5b611130565b610f64565b610f07565b610ed0565b610a7a565b6109f1565b610943565b610910565b610852565b610834565b610773565b610756565b61072b565b6106fc565b6106cc565b61065c565b610634565b610608565b610584565b61056d565b61051a565b61041b565b6103b1565b6102a7565b6101c3565b6001600160e01b03198116036101be57565b600080fd5b346101be5760203660031901126101be5760206004356101e2816101ac565b63ffffffff60e01b1663780e9d6360e01b8114908115610208575b506040519015158152f35b6380ac58cd60e01b81149150811561023a575b8115610229575b50386101fd565b6301ffc9a760e01b14905038610222565b635b5e139f60e01b8114915061021b565b60005b83811061025e5750506000910152565b818101518382015260200161024e565b906020916102878151809281855285808601910161024b565b601f01601f1916010190565b9060206102a492818152019061026e565b90565b346101be576000806003193601126103ae57604051908080549060019180831c928082169283156103a4575b602092838610851461039057858852602088019490811561036f5750600114610317575b61031387610307818903826109b3565b60405191829182610293565b0390f35b6000805294509192917f290decd9548b62a8d60345a988386fc84ba6bc95484008f6362f93160ef3e5635b83861061035e57505050910190506103078261031338806102f7565b805485870152948201948101610342565b60ff191685525050505090151560051b0190506103078261031338806102f7565b634e487b7160e01b82526022600452602482fd5b93607f16936102d3565b80fd5b346101be5760203660031901126101be576004356103ce81611443565b506000526004602052602060018060a01b0360406000205416604051908152f35b600435906001600160a01b03821682036101be57565b602435906001600160a01b03821682036101be57565b346101be5760403660031901126101be576104346103ef565b6024359061044182611443565b33151580610507575b806104d9575b6104c1576104bf926104a09181906001600160a01b0385811691167f8c5be1e5ebec7d5bd14f71427d1e84f3dd0314c0f7b2291e5b200ac8c7c3b925600080a46000526004602052604060002090565b80546001600160a01b0319166001600160a01b03909216919091179055565b005b60405163a9fbf51f60e01b8152336004820152602490fd5b506001600160a01b038116600090815260056020908152604080832033845290915290205460ff1615610450565b506001600160a01b03811633141561044a565b346101be5760003660031901126101be576020600854604051908152f35b60609060031901126101be576001600160a01b039060043582811681036101be579160243590811681036101be579060443590565b346101be576104bf61057e36610538565b91611195565b346101be5760403660031901126101be5761059d6103ef565b602435906105aa8161115c565b8210156105dd5760018060a01b031660005260066020526040600020906000526020526020604060002054604051908152f35b60405163295f44f760e21b81526001600160a01b039190911660048201526024810191909152604490fd5b346101be5760203660031901126101be57600435600052600e6020526020604060002054604051908152f35b346101be576104bf61064536610538565b906040519261065384610976565b6000845261131a565b346101be5760203660031901126101be576004356008548110156106ad5760209060086000527ff3f7a9fe364faab93b216da50a3214154f22a0a2b415b23a84c8169e8b636ee30154604051908152f35b6044906040519063295f44f760e21b8252600060048301526024820152fd5b346101be5760203660031901126101be5760206106ea600435611443565b6040516001600160a01b039091168152f35b346101be5760003660031901126101be57602060405173a81a6a910fed20374361b35c451a4a44f86ced468152f35b346101be5760203660031901126101be57602061074e6107496103ef565b61115c565b604051908152f35b346101be5760003660031901126101be5760206040516103ea8152f35b346101be576000806003193601126103ae576040519080600190815480831c9280821692831561082a575b602092838610851461039057858852602088019490811561036f57506001146107d15761031387610307818903826109b3565b600160005294509192917fb10e2d527612073b26eecdfd717e6a320cf44b4afac2b0732d9fcbe2b7fa0cf65b83861061081957505050910190506103078261031338806102f7565b8054858701529482019481016107fd565b93607f169361079e565b346101be5760003660031901126101be576020600b54604051908152f35b346101be5760403660031901126101be5761086b6103ef565b6024358015158082036101be576001600160a01b0383169283156108f7573360009081526005602090815260408083206001600160a01b039094168352929052209060ff801983541691161790557f17307eab39ab6107e8899845ad3d59bd9653f200f220920489ca2b5937696c31604051806108f2339482919091602081019215159052565b0390a3005b604051630b61174360e31b815260048101859052602490fd5b346101be5760203660031901126101be5761031361092f600435611f29565b60405191829160208352602083019061026e565b346101be5760003660031901126101be576020604051610e908152f35b634e487b7160e01b600052604160045260246000fd5b6020810190811067ffffffffffffffff82111761099257604052565b610960565b6060810190811067ffffffffffffffff82111761099257604052565b90601f8019910116810190811067ffffffffffffffff82111761099257604052565b67ffffffffffffffff811161099257601f01601f191660200190565b346101be5760803660031901126101be57610a0a6103ef565b610a12610405565b6064359167ffffffffffffffff83116101be57366023840112156101be57826004013591610a3f836109d5565b92610a4d60405194856109b3565b80845236602482870101116101be5760208160009260246104bf980183880137850101526044359161131a565b346101be5760203660031901126101be57600435600081815260026020526040902054610ab1906001600160a01b03161515611a00565b610aba81611a81565b604051674c6f6f676965202360c01b60208201529190829060288201610adf91611a38565b0391601f19928381018252610af490826109b3565b610b0882600052600c602052604060002090565b5460e81b610b1590611dde565b91610b2a81600052600d602052604060002090565b54610b3490611a81565b92610b4982600052600e602052604060002090565b54610b5390611a81565b6040517f54686973204c6f6f6769652069732074686520636f6c6f7220230000000000006020820152948592603a8401610b8c91611a38565b750103bb4ba3410309031b43ab13134b732b9b99037b3160551b8152601601610bb491611a38565b7401030b7321036b7baba34103632b733ba341037b31605d1b8152601501610bdb91611a38565b6221212160e81b8152600301038481018452610bf790846109b3565b610c0081611e8d565b610c0990611c34565b90610c1381611a81565b90610c2881600052600c602052604060002090565b5460e81b610c3590611dde565b610c4982600052600d602052604060002090565b54610c5390611a81565b90610c6883600052600e602052604060002090565b54610c7290611a81565b92610c7c90611443565b610c8e906001600160a01b0316611d4b565b604051683d913730b6b2911d1160b91b602082015297889791959160298901610cb691611a38565b71111610113232b9b1b934b83a34b7b7111d1160711b8152601201610cda91611a38565b7f222c202265787465726e616c5f75726c223a2268747470733a2f2f6275726e7981526e626f79732e636f6d2f746f6b656e2f60881b6020820152602f01610d2191611a38565b7f222c202261747472696275746573223a205b7b2274726169745f74797065223a8152742022636f6c6f72222c202276616c7565223a20222360581b6020820152603501610d6e91611a38565b7f227d2c7b2274726169745f74797065223a20226368756262696e657373222c208152680113b30b63ab2911d160bd1b6020820152602901610daf91611a38565b7f7d2c7b2274726169745f74797065223a20226d6f7574684c656e677468222c208152680113b30b63ab2911d160bd1b6020820152602901610df091611a38565b6c3eae96101137bbb732b9111d1160991b8152600d01610e0f91611a38565b6c1116101134b6b0b3b2911d101160991b8152600d017f646174613a696d6167652f7376672b786d6c3b6261736536342c0000000000008152601a01610e5491611a38565b61227d60f01b8152600201038281018252610e6f90826109b3565b610e7890611c34565b6040517f646174613a6170706c69636174696f6e2f6a736f6e3b6261736536342c000000602082015291908290603d8201610eb291611a38565b039081018252610ec290826109b3565b604051610313819282610293565b346101be5760203660031901126101be57600435600052600c602052602060406000205460e81b6040519062ffffff60e81b168152f35b346101be5760403660031901126101be57602060ff610f58610f276103ef565b610f2f610405565b6001600160a01b0391821660009081526005865260408082209290931681526020919091522090565b54166040519015158152f35b6000806003193601126103ae576103139061111f600a91610f89610e90845410611763565b610fb3610fae610fa6600b54610fa18134101561179e565b6117d7565b6103e8900490565b600b55565b610fc5610fc08454611851565b600a55565b610fd08354336118d4565b8254611074610fde436115f9565b60408051602081018581529240918101919091526bffffffffffffffffffffffff1933606090811b82168184015230901b166074820152606881526110246088826109b3565b5190206000928352600c602052604090922082841a60f81b6001600160f81b031916600184901a60f01b60ff60f01b1617600284901a60e81b60ff60e81b161760e81c62ffffff19825416179055565b61109261108d6110868360031a6117ee565b60ff900490565b61185f565b6110a78554600052600d602052604060002090565b556110f56110e46110df6110868754946110d56110ce87600052600d602052604060002090565b5460021c90565b9060041a9061183e565b61186d565b91600052600e602052604060002090565b558080803473a81a6a910fed20374361b35c451a4a44f86ced465af16111196114c4565b50611897565b546040519081529081906020820190565b346101be5760203660031901126101be57600435600052600d6020526020604060002054604051908152f35b6001600160a01b0316801561117c57600052600360205260406000205490565b6040516322718ad960e21b815260006004820152602490fd5b6001600160a01b038281169290919083156112ee5760008581526002602052604090205485906001600160a01b031694336112de575b84861695861580156112b0575b6001600160a01b03851660009081526003602052604090206001815401905561120f856104a0866000526002602052604060002090565b8383897fddf252ad1be2c89b69c2b068fc378daa952ba7f163c4a11628f55a4df523b3ef600080a415611290575061124682611664565b8503611280575b5050169182820361125d57505050565b60649350604051926364283d7b60e01b8452600484015260248301526044820152fd5b6112899161161d565b388461124d565b828288036112a0575b5050611246565b6112a9916116c6565b3882611299565b6112b98461141f565b6001600160a01b038216600090815260036020526040902080546000190190556111d8565b6112e982338861150a565b6111cb565b604051633250574960e11b815260006004820152602490fd5b6040519061131482610976565b60008252565b91929092611329818585611195565b833b611336575b50505050565b61135b916020916040519384928392630a85bd0160e11b978885523360048601611493565b038160006001600160a01b0388165af1600091816113ef575b506113b357826113826114c4565b80519190826113ac57604051633250574960e11b81526001600160a01b0383166004820152602490fd5b9050602001fd5b6001600160e01b031916036113cc575038808080611330565b604051633250574960e11b81526001600160a01b03919091166004820152602490fd5b61141191925060203d8111611418575b61140981836109b3565b81019061147e565b9038611374565b503d6113ff565b611433906000526004602052604060002090565b80546001600160a01b0319169055565b6000818152600260205260409020546001600160a01b0316908115611466575090565b60249060405190637e27328960e01b82526004820152fd5b908160209103126101be57516102a4816101ac565b6001600160a01b0391821681529116602082015260408101919091526080606082018190526102a49291019061026e565b3d156114ef573d906114d5826109d5565b916114e360405193846109b3565b82523d6000602084013e565b606090565b634e487b7160e01b600052603260045260246000fd5b6001600160a01b03908282168015159081611575575b501561152c5750505050565b1661154a57604051637e27328960e01b815260048101839052602490fd5b60405163177e802f60e01b81526001600160a01b039190911660048201526024810191909152604490fd5b828416808214925082156115ad575b508115611593575b5038611520565b90508460005260046020528260406000205416143861158c565b909150600052600560205260ff6115da8560406000209060018060a01b0316600052602052604060002090565b54169038611584565b634e487b7160e01b600052601160045260246000fd5b60001981019190821161160857565b6115e3565b9061032a91820391821161160857565b906116278261115c565b600019810192908311611608576001600160a01b031660009081526006602090815260408083208584528252808320849055928252600790522055565b60085481600052600960205280604060002055680100000000000000008110156109925760018101806008558110156116c15760086000527ff3f7a9fe364faab93b216da50a3214154f22a0a2b415b23a84c8169e8b636ee30155565b6114f4565b906116d08261115c565b60009282845260209060078252846117016040958683205486810361171d575b506000526007602052604060002090565b556001600160a01b031684526006815282842091845252812055565b6001600160a01b038516808552600680885289862089875288528986205491865287528885208286528752888520819055600090815260076020526040902055386116f0565b1561176a57565b60405162461bcd60e51b815260206004820152600c60248201526b444f4e45204d494e54494e4760a01b6044820152606490fd5b156117a557565b60405162461bcd60e51b815260206004820152600a60248201526909c9ea8408a9c9eaa8e960b31b6044820152606490fd5b906103ea9182810292818404149015171561160857565b908160370291603783040361160857565b600281901b91906001600160fe1b0381160361160857565b908160011b918083046002149015171561160857565b908160090291600983040361160857565b8181029291811591840414171561160857565b906001820180921161160857565b602301908160231161160857565b60b401908160b41161160857565b906002820180921161160857565b906020820180921161160857565b1561189e57565b60405162461bcd60e51b815260206004820152600e60248201526d18dbdd5b19081b9bdd081cd95b9960921b6044820152606490fd5b6001600160a01b039181831680156112ee576000828152600260205260409020546001600160a01b0316938416801594851595866119d2575b6001600160a01b038616600090815260036020526040902060018154019055611944866104a0876000526002602052604060002090565b8484847fddf252ad1be2c89b69c2b068fc378daa952ba7f163c4a11628f55a4df523b3ef600080a4156119b2575061197b83611664565b036119a2575b505061198957565b6040516339e3563760e11b815260006004820152602490fd5b6119ab9161161d565b3880611981565b838383036119c2575b505061197b565b6119cb916116c6565b38836119bb565b6119db8561141f565b6001600160a01b0382166000908152600360205260409020805460001901905561190d565b15611a0757565b60405162461bcd60e51b81526020600482015260096024820152681b9bdd08195e1a5cdd60ba1b6044820152606490fd5b90611a4b6020928281519485920161024b565b0190565b90611a59826109d5565b611a6660405191826109b3565b8281528092611a77601f19916109d5565b0190602036910137565b806000917a184f03e93ff9f4daa797ed6e38ed64bf6a1f01000000000000000080821015611bb6575b506d04ee2d6d415b85acef810000000080831015611ba7575b50662386f26fc1000080831015611b98575b506305f5e10080831015611b89575b5061271080831015611b7a575b506064821015611b6a575b600a80921015611b60575b600190816021611b18828701611a4f565b95860101905b611b2a575b5050505090565b600019019083906f181899199a1a9b1b9c1cb0b131b232b360811b8282061a835304918215611b5b57919082611b1e565b611b23565b9160010191611b07565b9190606460029104910191611afc565b60049193920491019138611af1565b60089193920491019138611ae4565b60109193920491019138611ad5565b60209193920491019138611ac3565b604093508104915038611aaa565b604051906060820182811067ffffffffffffffff82111761099257604052604082527f6768696a6b6c6d6e6f707172737475767778797a303132333435363738392b2f6040837f4142434445464748494a4b4c4d4e4f505152535455565758595a61626364656660208201520152565b805115611d1457611c43611bc4565b611c5f611c5a611c53845161187b565b6003900490565b6117ff565b91611c71611c6c84611889565b611a4f565b92835280815182019060208501935b828210611cc257505050600390510680600114611cb157600214611ca2575090565b603d60f81b6000199091015290565b50613d3d60f01b6001199091015290565b9091936004906003809401938451600190603f9082828260121c16880101518553828282600c1c16880101518386015382828260061c1688010151600286015316850101519082015301939190611c80565b506102a4611307565b8051600110156116c15760210190565b9081518110156116c1570160200190565b8015611608576000190190565b60405190611d5882610997565b602a82526020820160403682378251156116c157603090536078611d7b83611d1d565b536029905b60018211611d8d57505090565b600f81169060108210156116c157611dc9916f181899199a1a9b1b9c1cb0b131b232b360811b901a611dbf8486611d2d565b5360041c91611d3e565b90611d80565b60001981146116085760010190565b604051906040820182811067ffffffffffffffff82111761099257604052600682526020368184013760005b60038110611e1757505090565b81811a90600f80831690601093848310156116c1576f181899199a1a9b1b9c1cb0b131b232b360811b9283901a611e5e611e58611e5387611817565b611851565b89611d2d565b5360041c16928310156116c157611e88921a611e82611e7c83611817565b86611d2d565b53611dcf565b611e0a565b611e9690611f29565b6102a4606760405180937f3c7376672077696474683d2234303022206865696768743d223430302220786d60208301527f6c6e733d22687474703a2f2f7777772e77332e6f72672f323030302f737667226040830152601f60f91b6060830152611f0a81518092602060618601910161024b565b8101651e17b9bb339f60d11b60618201520360478101845201826109b3565b611f3d81600052600c602052604060002090565b5460e81b611f4a90611dde565b611f5e82600052600d602052604060002090565b54611f6890611a81565b91611f7d81600052600d602052604060002090565b54611f879061182d565b611f909061160d565b600b9004611f9d90611a81565b90611fb290600052600e602052604060002090565b54611fbc90611a81565b6040516c1e339034b21e9132bcb298911f60991b6020820152938493919291602d85017f3c656c6c69707365207374726f6b652d77696474683d2233222072793d22323981527f2e35222072783d2232392e35222069643d227376675f31222063793d2231353460208201527f2e35222063783d223138312e3522207374726f6b653d2223303030222066696c604082015269361e9111b3333311179f60b11b6060820152606a017f3c656c6c697073652072793d22332e35222072783d22322e35222069643d227381527f76675f33222063793d223135342e35222063783d223137332e3522207374726f60208201527f6b652d77696474683d223322207374726f6b653d2223303030222066696c6c3d60408201526a111198181818181811179f60a91b6060820152606b01631e17b39f60e11b81526004016c1e339034b21e913432b0b2111f60991b8152600d016f3c656c6c697073652066696c6c3d222360801b815260100161212f91611a38565b7f22207374726f6b652d77696474683d2233222063783d223230342e352220637981527f3d223231312e3830303635222069643d227376675f35222072783d22000000006020820152603c0161218491611a38565b7f222072793d2235312e383030363522207374726f6b653d2223303030222f3e008152601f01631e17b39f60e11b81526004016c1e339034b21e9132bcb299111f60991b8152600d017f3c656c6c69707365207374726f6b652d77696474683d2233222072793d22323981527f2e35222072783d2232392e35222069643d227376675f32222063793d2231363860208201527f2e35222063783d223230392e3522207374726f6b653d2223303030222066696c604082015269361e9111b3333311179f60b11b6060820152606a017f3c656c6c697073652072793d22332e35222072783d2233222069643d2273766781527f5f34222063793d223136392e35222063783d2232303822207374726f6b652d7760208201527f696474683d2233222066696c6c3d222330303030303022207374726f6b653d226040820152661198181811179f60c91b60608201526067017f3c2f673e3c6720636c6173733d226d6f75746822207472616e73666f726d3d228152690e8e4c2dce6d8c2e8ca560b31b6020820152602a0161231691611a38565b64161814911f60d91b81526005017f3c7061746820643d224d203133302032343020512031363520323530200000008152601d0161235391611a38565b7f2032333522207374726f6b653d22626c61636b22207374726f6b652d7769647481527f683d2233222066696c6c3d227472616e73706172656e74222f3e0000000000006020820152603a01631e17b39f60e11b815260040103601f19810182526102a490826109b356fea26469706673582212200f300888e3394082e4d05e8ba2f185c8e6194b8e9bc0dc2e93cdefe6cc96188064736f6c63430008140033",
  "devdoc": {
    "errors": {
      "ERC721EnumerableForbiddenBatchMint()": [
        {
          "details": "Batch mint is not allowed."
        }
      ],
      "ERC721IncorrectOwner(address,uint256,address)": [
        {
          "details": "Indicates an error related to the ownership over a particular token. Used in transfers.",
          "params": {
            "owner": "Address of the current owner of a token.",
            "sender": "Address whose tokens are being transferred.",
            "tokenId": "Identifier number of a token."
          }
        }
      ],
      "ERC721InsufficientApproval(address,uint256)": [
        {
          "details": "Indicates a failure with the `operator`s approval. Used in transfers.",
          "params": {
            "operator": "Address that may be allowed to operate on tokens without being their owner.",
            "tokenId": "Identifier number of a token."
          }
        }
      ],
      "ERC721InvalidApprover(address)": [
        {
          "details": "Indicates a failure with the `approver` of a token to be approved. Used in approvals.",
          "params": {
            "approver": "Address initiating an approval operation."
          }
        }
      ],
      "ERC721InvalidOperator(address)": [
        {
          "details": "Indicates a failure with the `operator` to be approved. Used in approvals.",
          "params": {
            "operator": "Address that may be allowed to operate on tokens without being their owner."
          }
        }
      ],
      "ERC721InvalidOwner(address)": [
        {
          "details": "Indicates that an address can't be an owner. For example, `address(0)` is a forbidden owner in EIP-20. Used in balance queries.",
          "params": {
            "owner": "Address of the current owner of a token."
          }
        }
      ],
      "ERC721InvalidReceiver(address)": [
        {
          "details": "Indicates a failure with the token `receiver`. Used in transfers.",
          "params": {
            "receiver": "Address to which tokens are being transferred."
          }
        }
      ],
      "ERC721InvalidSender(address)": [
        {
          "details": "Indicates a failure with the token `sender`. Used in transfers.",
          "params": {
            "sender": "Address whose tokens are being transferred."
          }
        }
      ],
      "ERC721NonexistentToken(uint256)": [
        {
          "details": "Indicates a `tokenId` whose `owner` is the zero address.",
          "params": {
            "tokenId": "Identifier number of a token."
          }
        }
      ],
      "ERC721OutOfBoundsIndex(address,uint256)": [
        {
          "details": "An `owner`'s token query was out of bounds for `index`. NOTE: The owner being `address(0)` indicates a global out of bounds index."
        }
      ]
    },
    "events": {
      "Approval(address,address,uint256)": {
        "details": "Emitted when `owner` enables `approved` to manage the `tokenId` token."
      },
      "ApprovalForAll(address,address,bool)": {
        "details": "Emitted when `owner` enables or disables (`approved`) `operator` to manage all of its assets."
      },
      "Transfer(address,address,uint256)": {
        "details": "Emitted when `tokenId` token is transferred from `from` to `to`."
      }
    },
    "kind": "dev",
    "methods": {
      "approve(address,uint256)": {
        "details": "See {IERC721-approve}."
      },
      "balanceOf(address)": {
        "details": "See {IERC721-balanceOf}."
      },
      "getApproved(uint256)": {
        "details": "See {IERC721-getApproved}."
      },
      "isApprovedForAll(address,address)": {
        "details": "See {IERC721-isApprovedForAll}."
      },
      "name()": {
        "details": "See {IERC721Metadata-name}."
      },
      "ownerOf(uint256)": {
        "details": "See {IERC721-ownerOf}."
      },
      "safeTransferFrom(address,address,uint256)": {
        "details": "See {IERC721-safeTransferFrom}."
      },
      "safeTransferFrom(address,address,uint256,bytes)": {
        "details": "See {IERC721-safeTransferFrom}."
      },
      "setApprovalForAll(address,bool)": {
        "details": "See {IERC721-setApprovalForAll}."
      },
      "supportsInterface(bytes4)": {
        "details": "See {IERC165-supportsInterface}."
      },
      "symbol()": {
        "details": "See {IERC721Metadata-symbol}."
      },
      "tokenByIndex(uint256)": {
        "details": "See {IERC721Enumerable-tokenByIndex}."
      },
      "tokenOfOwnerByIndex(address,uint256)": {
        "details": "See {IERC721Enumerable-tokenOfOwnerByIndex}."
      },
      "totalSupply()": {
        "details": "See {IERC721Enumerable-totalSupply}."
      },
      "transferFrom(address,address,uint256)": {
        "details": "See {IERC721-transferFrom}."
      }
    },
    "version": 1
  },
  "userdoc": {
    "kind": "user",
    "methods": {},
    "version": 1
  },
  "storageLayout": {
    "storage": [
      {
        "astId": 169,
        "contract": "contracts/YourCollectible.sol:YourCollectible",
        "label": "_name",
        "offset": 0,
        "slot": "0",
        "type": "t_string_storage"
      },
      {
        "astId": 171,
        "contract": "contracts/YourCollectible.sol:YourCollectible",
        "label": "_symbol",
        "offset": 0,
        "slot": "1",
        "type": "t_string_storage"
      },
      {
        "astId": 175,
        "contract": "contracts/YourCollectible.sol:YourCollectible",
        "label": "_owners",
        "offset": 0,
        "slot": "2",
        "type": "t_mapping(t_uint256,t_address)"
      },
      {
        "astId": 179,
        "contract": "contracts/YourCollectible.sol:YourCollectible",
        "label": "_balances",
        "offset": 0,
        "slot": "3",
        "type": "t_mapping(t_address,t_uint256)"
      },
      {
        "astId": 183,
        "contract": "contracts/YourCollectible.sol:YourCollectible",
        "label": "_tokenApprovals",
        "offset": 0,
        "slot": "4",
        "type": "t_mapping(t_uint256,t_address)"
      },
      {
        "astId": 189,
        "contract": "contracts/YourCollectible.sol:YourCollectible",
        "label": "_operatorApprovals",
        "offset": 0,
        "slot": "5",
        "type": "t_mapping(t_address,t_mapping(t_address,t_bool))"
      },
      {
        "astId": 1299,
        "contract": "contracts/YourCollectible.sol:YourCollectible",
        "label": "_ownedTokens",
        "offset": 0,
        "slot": "6",
        "type": "t_mapping(t_address,t_mapping(t_uint256,t_uint256))"
      },
      {
        "astId": 1303,
        "contract": "contracts/YourCollectible.sol:YourCollectible",
        "label": "_ownedTokensIndex",
        "offset": 0,
        "slot": "7",
        "type": "t_mapping(t_uint256,t_uint256)"
      },
      {
        "astId": 1306,
        "contract": "contracts/YourCollectible.sol:YourCollectible",
        "label": "_allTokens",
        "offset": 0,
        "slot": "8",
        "type": "t_array(t_uint256)dyn_storage"
      },
      {
        "astId": 1310,
        "contract": "contracts/YourCollectible.sol:YourCollectible",
        "label": "_allTokensIndex",
        "offset": 0,
        "slot": "9",
        "type": "t_mapping(t_uint256,t_uint256)"
      },
      {
        "astId": 3489,
        "contract": "contracts/YourCollectible.sol:YourCollectible",
        "label": "_currentTokenId",
        "offset": 0,
        "slot": "10",
        "type": "t_uint256"
      },
      {
        "astId": 3504,
        "contract": "contracts/YourCollectible.sol:YourCollectible",
        "label": "price",
        "offset": 0,
        "slot": "11",
        "type": "t_uint256"
      },
      {
        "astId": 3508,
        "contract": "contracts/YourCollectible.sol:YourCollectible",
        "label": "color",
        "offset": 0,
        "slot": "12",
        "type": "t_mapping(t_uint256,t_bytes3)"
      },
      {
        "astId": 3512,
        "contract": "contracts/YourCollectible.sol:YourCollectible",
        "label": "chubbiness",
        "offset": 0,
        "slot": "13",
        "type": "t_mapping(t_uint256,t_uint256)"
      },
      {
        "astId": 3516,
        "contract": "contracts/YourCollectible.sol:YourCollectible",
        "label": "mouthLength",
        "offset": 0,
        "slot": "14",
        "type": "t_mapping(t_uint256,t_uint256)"
      }
    ],
    "types": {
      "t_address": {
        "encoding": "inplace",
        "label": "address",
        "numberOfBytes": "20"
      },
      "t_array(t_uint256)dyn_storage": {
        "base": "t_uint256",
        "encoding": "dynamic_array",
        "label": "uint256[]",
        "numberOfBytes": "32"
      },
      "t_bool": {
        "encoding": "inplace",
        "label": "bool",
        "numberOfBytes": "1"
      },
      "t_bytes3": {
        "encoding": "inplace",
        "label": "bytes3",
        "numberOfBytes": "3"
      },
      "t_mapping(t_address,t_bool)": {
        "encoding": "mapping",
        "key": "t_address",
        "label": "mapping(address => bool)",
        "numberOfBytes": "32",
        "value": "t_bool"
      },
      "t_mapping(t_address,t_mapping(t_address,t_bool))": {
        "encoding": "mapping",
        "key": "t_address",
        "label": "mapping(address => mapping(address => bool))",
        "numberOfBytes": "32",
        "value": "t_mapping(t_address,t_bool)"
      },
      "t_mapping(t_address,t_mapping(t_uint256,t_uint256))": {
        "encoding": "mapping",
        "key": "t_address",
        "label": "mapping(address => mapping(uint256 => uint256))",
        "numberOfBytes": "32",
        "value": "t_mapping(t_uint256,t_uint256)"
      },
      "t_mapping(t_address,t_uint256)": {
        "encoding": "mapping",
        "key": "t_address",
        "label": "mapping(address => uint256)",
        "numberOfBytes": "32",
        "value": "t_uint256"
      },
      "t_mapping(t_uint256,t_address)": {
        "encoding": "mapping",
        "key": "t_uint256",
        "label": "mapping(uint256 => address)",
        "numberOfBytes": "32",
        "value": "t_address"
      },
      "t_mapping(t_uint256,t_bytes3)": {
        "encoding": "mapping",
        "key": "t_uint256",
        "label": "mapping(uint256 => bytes3)",
        "numberOfBytes": "32",
        "value": "t_bytes3"
      },
      "t_mapping(t_uint256,t_uint256)": {
        "encoding": "mapping",
        "key": "t_uint256",
        "label": "mapping(uint256 => uint256)",
        "numberOfBytes": "32",
        "value": "t_uint256"
      },
      "t_string_storage": {
        "encoding": "bytes",
        "label": "string",
        "numberOfBytes": "32"
      },
      "t_uint256": {
        "encoding": "inplace",
        "label": "uint256",
        "numberOfBytes": "32"
      }
    }
  }
}